:040000000BEF00F012
:100008003682FACF01F0FBCF02F05AED00F0D0EFC4
:1000180000F0000EC26E0F0EC16E080E6F6EA09A31
:100028001768000E956E17C083FF010E186E929226
:100038001850D8B403D08950020902D08950FD0B5A
:10004800806E640EC2EC00F0010E196E9290195089
:10005800D8B403D08950010902D08950FE0B806EB4
:10006800000E1A6E000E956E1AC083FF030E126EF4
:10007800E80E116EADEC00F0810E0F6E0F0E106ED3
:10008800930E116E0F0E126EFF0E136E000E146E8D
:1000980091EC00F0356E0A0EC2EC00F035C01BF092
:1000A800000E956E1BC083FFE7D7FFD70600E9CF88
:1000B80003F0EACF04F0E1CF05F0E2CF06F0D9CFA4
:1000C80007F0DACF08F0F3CF09F0F4CF0AF0F6CF53
:1000D8000BF0F7CF0CF0F8CF0DF0F5CF0EF00EC007
:1000E800F5FF0DC0F8FF0CC0F7FF0BC0F6FF0AC004
:1000F800F4FF09C0F3FF08C0DAFF07C0D9FF06C044
:10010800E2FF05C0E1FF04C0EAFF03C0E9FF02C047
:10011800FBFF01C0FAFF3692110011C0D9FF12C0CF
:10012800DAFFDF50131011C0D9FF12C0DAFFDF6EFB
:1001380014C015F00FC0D9FF10C0DAFFDF50131438
:10014800166E152A02D0D8901632152EFCD71650E6
:10015800120009D0FF0EC2EC00F0010E1124116E3E
:10016800FF0E1220126E1204D8B0F4D711501210DC
:10017800D8B412001150C2EC00F01200106E07D073
:10018800070E0F6E610EE82EFED70F2EFCD7100655
:100198001028D8B41200F4D700EE1CF01A0EEE6A3C
:0E01A800E806FDE13690369200010DEF00F002
:020000040030CA
:0E0000002CCE3F1EFF8781FF0FC00FE00F4088
:00000001FF
