:040000000BEF00F012
:100008003C82FACF01F0FBCF02F093ED00F0E6EF6F
:1000180000F0000EC26E0F0EC16E080E6F6EA09A31
:10002800060E176E000E936E17C081FF010EF1ECDD
:1000380000F0830E0F6E0F0E106E950E116E0F0EE0
:10004800126EFF0E136E000E146ECAEC00F0386EBE
:10005800010EF1EC00F0090E186E000E936E18C038
:1000680081FF010EF1EC00F0830E0F6E0F0E106E83
:10007800950E116E0F0E126EFF0E136E000E146E9B
:10008800CAEC00F0396E010EF1EC00F0050E196EA5
:10009800000E936E19C081FF010EF1EC00F038C01C
:1000A8003AF0385039183B6E010EF1EC00F03AC0C6
:1000B8001AF0000E956E1AC083FF010EF1EC00F0E5
:1000C800150E1B6E000E936E1BC081FF010EF1EC26
:1000D80000F0050E1C6E000E936E1CC081FF010E11
:1000E800F1EC00F03BC01DF0000E956E1DC083FFC3
:1000F800010EF1EC00F0450E1E6E000E936E1EC050
:1001080081FF010EF1EC00F0050E1F6E000E936EDC
:100118001FC081FF0A0EF1EC00F082D7FFD706005E
:10012800E9CF03F0EACF04F0E1CF05F0E2CF06F023
:10013800D9CF07F0DACF08F0F3CF09F0F4CF0AF0FF
:10014800F6CF0BF0F7CF0CF0F8CF0DF0F5CF0EF09F
:100158000EC0F5FF0DC0F8FF0CC0F7FF0BC0F6FF8F
:100168000AC0F4FF09C0F3FF08C0DAFF07C0D9FFCF
:1001780006C0E2FF05C0E1FF04C0EAFF03C0E9FFD3
:1001880002C0FBFF01C0FAFF3C92110011C0D9FF69
:1001980012C0DAFFDF50131011C0D9FF12C0DAFF06
:1001A800DF6E14C015F00FC0D9FF10C0DAFFDF50A2
:1001B8001314166E152A02D0D8901632152EFCD7B5
:1001C8001650120000EE20F01C0EEE6AE806FDE163
:1001D8003C903C9200010DEF00F00F6E04D0FA0E37
:1001E80000F0E82EFDD70F060F28D8B41200F7D775
:020000040030CA
:0E0000003FCC3F1EFF8781FF0FC00FE00F4077
:00000001FF
