:040000000BEF00F012
:100008005682FACF48F0FBCF49F0DDED0EF0C0EF95
:0200180010F0E6
:10080000009E084C088C08090809024300020100F8
:10081000C032090400000102020100052400100199
:100820000424020205240600010524010001070535
:10083000810308000209040100020A000000070504
:100840000202400000070582024000002E034D0016
:100850006100740072006900780020004D0075008E
:100860006C00740069006D0065006400690061003F
:1008700020004C00740064002E00120100020200EF
:100880000008BF1210F0000101020001120348002D
:10089000610072007300680061006E006100040373
:0308A00009040048
:1008A40004013205D8A410D0040130511F0B0009F3
:1008B400D8A40AD00C8E030E04013119D8A402D096
:1008C400010E01D0000E1C6E04013251D8A4120096
:1008D400040130511F0B020AD8A412000401345140
:1008E4000F0B0009D8B41200040134510F0B406EF1
:1008F400030E40601200200E2018D8A412000C8EA3
:10090400040134BF1BD0040134510F0B406E40501E
:10091400020D7E0EF324D96E000EF420DA6EDECFC3
:1009240044F0DDCF45F0040134510F0B406E4050CC
:10093400010D8F0EF324D96E000E1AD00401345128
:100944000F0B406E4050020D0F0EF324D96E000EB3
:10095400F420DA6EDECF44F0DDCF45F004013451EB
:100964000F0B406E4050010D8C0EF324D96E000E17
:10097400F420DA6EDF50436E43B002D0449401D0C9
:100984004484040134BF0BD0040134510F0B406E76
:100994004050020D7E0EF324D96E000E0AD00401DD
:1009A40034510F0B406E4050020D0F0EF324D96EDC
:1009B400000EF420DA6E44C0DEFF45C0DDFF030EF6
:1009C40004013119D8A42FD044C0D9FF45C0DAFF9F
:1009D400DFAE1CD0040134BF0BD0040134510F0B23
:1009E400406E4050010D8F0EF324D96E000E0AD0D4
:1009F400040134510F0B406E4050010D8C0EF32452
:100A0400D96E000EF420DA6E0001DF8244C0D9FFF3
:100A140045C0DAFF000EDB8444C0D9FF45C0DAFFCD
:100A2400000EDB8E1200040E441A44C0D9FF45C0E8
:100A3400DAFFDFAE1BD044C0D9FF45C0DAFF7F0E1A
:100A4400DF1644C0D9FF45C0DAFF000EDB8C000E70
:100A5400396E050E386E44C03AF045C03BF0000EC6
:100A64003D6E020E3C6E4CEC0FF006D044C0D9FF34
:100A740045C0DAFF000EDB8C040E441A43B206D0E4
:100A840044C0D9FF45C0DAFFDFAE31D0040134BF22
:100A94000BD0040134510F0B406E4050010D8F0EEA
:100AA400F324D96E000E0AD0040134510F0B406EAA
:100AB4004050010D8C0EF324D96E000EF420DA6E32
:100AC4000001DF9244C0D9FF45C0DAFF3B0EDF16B8
:100AD400000E396E050E386E44C03AF045C03BF046
:100AE400000E3D6E020E3C6E4CEC0FF006D044C07E
:100AF400D9FF45C0DAFF3B0EDF16040134510F0B5A
:100B0400406E4050010D700EF324416E0F0EF42020
:100B1400426E41C0D9FF42C0DAFFFE0EDF1612005A
:100B2400A09A000E6A6E000E686E000E706E710E52
:100B34000001B76F0F0E0001B86F000E0001BA6F0D
:100B4400000EB96F000E0001BC6F020EBB6F47ECC4
:100B540010F0160E6F6E9F0E6B6E7B0E696E000E9C
:100B64000001BF6F0B0E0001BF6501D010D0000162
:100B7400BF51040D000EF324D96E040EF420DA6E76
:100B8400DE6ADE6ADE6ADD6A0001BF2BEBD76D8C9C
:100B9400000E6E6E6D986D9C6896000E0C6E000EC5
:100BA400046E000E066E000E056E68B6F5D7010ED3
:100BB400216E010E226E000E1E6E000E0001A26F49
:100BC400000E1D6E000E0001BF6F020E0001BF6516
:100BD40001D033D00001BF51020D0F0EF324D96EA2
:100BE400000EF420DA6E000EDE6E000EDD6E0001E3
:100BF400BF51020D7E0EF324D96E000EF420DA6E7E
:100C0400000EDE6E000EDD6E0001BF51010D8C0E74
:100C1400F324D96E000EF420DA6E000EDF6E0001AC
:100C2400BF51010D8F0EF324D96E000EF420DA6E3D
:100C3400000EDF6E0001BF2BC8D7080E0F6E040E26
:100C4400106E160E706E040E0401036F300E026FE8
:100C5400080E0401016F040E0401006F0401008FEB
:100C6400000E2A6E000E0001886F000E896F000EC0
:100C74008A6F000E8B6F000E0001A36F000E206EB2
:100C84001200A09A0001985100019911D8B409D01A
:100C940098C0D9FF99C0DAFF0001DFAE02D0A08A64
:100CA4001200030E2518D8A402D0000E256E25507C
:100CB400D8A402D0A08A1200020E2518D8A416D0F7
:100CC400010E0001B76F000E0001B86F000E0001A5
:100CD400B96F000E0001BA6F020E88EC0AF0B7C0BB
:100CE40098F0B8C099F0030E256E6BD02504D8A4F3
:100CF40068D0400E266404D0400E0001BF6F02D0BD
:100D040026C0BFF00001BF5100082624266E000E45
:100D14000001926F050E0001936FBFC0BEF0000189
:100D2400A451D8B413D02AD095C0D9FF96C0DAFF05
:100D340092C0E1FF93C0E2FFDFCFE7FF0001924BD7
:100D4400932B0001954B962B0001BE070001BE5169
:100D54000001D8B418D0E8D795C0D9FF96C0DAFFFF
:100D640092C0E1FF93C0E2FFDFCFE7FF0001924BA7
:100D7400932B0001954B962B0001BE070001BE5139
:100D84000001D8A4E9D72650D8A409D0400E000108
:100D9400BF19D8A402D0020E01D0030E256E010E95
:100DA4000001B76F000E0001B86F050E0001B96FA6
:100DB400BFC0BAF0020E88EC0AF0B7C098F0B8C011
:100DC40099F0A08A1200A09A000E6A6E000E686E56
:100DD400000E706E710E2C6E0F0E2D6E000E2F6EA7
:100DE400000E2E6E000E316E020E306EAAEC10F064
:100DF400160E6F6E9F0E6B6E7B0E696E000E346E58
:100E04000B0E346401D00ED03450040D000EF324C4
:100E1400D96E040EF420DA6EDE6ADE6ADE6ADD6AFA
:100E2400342AEED76D8C000E6E6E6D986D9C6896AC
:100E3400000E0C6E000E046E000E066E000E056EA3
:100E440068B6F5D7010E216E010E226E000E1E6EDD
:100E5400000E0001A26F000E1D6E000E346E020E15
:100E6400346401D02ED03450020D0F0EF324D96E09
:100E7400000EF420DA6E000EDE6E000EDD6E3450CD
:100E8400020D7E0EF324D96E000EF420DA6E000EED
:100E9400DE6E000EDD6E3450010D8C0EF324D96E1F
:100EA400000EF420DA6E000EDF6E3450010D8F0E4A
:100EB400F324D96E000EF420DA6E000EDF6E342AAD
:100EC400CED7080E0F6E040E106E160E706E040E42
:100ED4000401036F300E026F080E0401016F040E4B
:100EE4000401006F0401008F000E2A6E000E000141
:100EF400886F000E896F000E8A6F000E8B6F000ED4
:100F04000001A36F000E206E12002004D8B46DBA45
:100F140006D0000E686E69806988020E206E68B47F
:100F240069A403D0689461EC10F06DA202D0A19A78
:100F3400120068B069A006D0E5EC06F0A08A040EA1
:100F4400206E689068B869A802D093EC10F068AC81
:100F54001AD069AC0ED0000E396E730E386E000EC6
:100F64003A6E000E3B6E000E3D6E010E3C6E4CEC74
:100F74000FF0689CE6EC10F02350D8A4230623500D
:100F8400D8B4BDEC0BF068BA69AA02D0CBEC0FF070
:100F940068B269A20FD07F0E396E3868000E3A6EBF
:100FA400000E3B6E000E3D6E010E3C6E4CEC0FF0DD
:100FB400000E6A6E040E206002D0A19A120069A687
:100FC40039D0000E476E030E476401D033D068A6B3
:100FD40031D06CCF2BF02B30E832E8320F0B286E77
:100FE40068962BB407D02850010D8F0EF324D96EC8
:100FF400000E06D02850010D8C0EF324D96E000E7D
:10100400F420DA6E0001DF702850D8A403D01AEC63
:101014000EF00ED0000E396E720E386E2B0E3A6E34
:10102400000E3B6E000E3D6E000E3C6E4CEC0FF05D
:10103400472AC9D7A19A1200800E04013019D8A4F6
:101044001200C00E0C6E7CD07A0E096E080E0A6E69
:10105400000E0E6E120E0D6E120004013251D8A451
:101064003ED004013251020D070EF324F66E080E31
:10107400F420F76E0900F5CF09F00A00F5CF0AF065
:10108400020E09242C6E000E0A202D6E2CC0F6FFD1
:101094002DC0F7FFF86A070EF76403D00800F55077
:1010A40005D0F6CFE9FFF7CFEAFFEF500D6E030E40
:1010B40009242C6E000E0A202D6E2CC0F6FF2DC0C4
:1010C400F7FFF86A070EF76403D00800F55005D05F
:1010D400F6CFE9FFF7CFEAFFEF500E6E1200000ED5
:1010E4000C6E1200030E0401326124D0040132514B
:1010F400020D010EF324F66E080EF420F76E0900BB
:10110400F5CF09F00A00F5CF0AF009C0F6FF0AC0CE
:10111400F7FFF86A070EF76403D00800F55005D00E
:10112400F6CFE9FFF7CFEAFFEF502C6E2C500D6E8F
:101134000E6A1200000E0C6E1200000E0C6E1200ED
:1011440004013351010AD8B47FD7030AD8B485D730
:10115400010AD8B4C7D7F1D720EE01F01750D92629
:101164001850DA22DF502D6E2D50055C000E065803
:10117400D8A005C02DF02D50055E000E065A000EB5
:101184002C6E11D02C50010D380EF324D96E040EA0
:10119400F420DA6E01C0E1FF02C0E2FFDFCFE7FF17
:1011A400014A022A2C2A2D502C5CD8A0EBD70550DA
:1011B4000610D8B432D020EE01F01950D9261A50B6
:1011C400DA22080EDF6E20EE02F01950D9261A50EA
:1011D400DA22380EDE6E040EDD6E17C0D9FF18C099
:1011E400DAFFDFBC0DD019C0D9FF1AC0DAFF480EF0
:1011F400DF6E19C0D9FF1AC0DAFF000EDB8E1200B1
:1012040019C0D9FF1AC0DAFF080EDF6E19C0D9FF62
:101214001AC0DAFF000EDB8E120020EE01F0195026
:10122400D9261A50DA22080EDF6E20EE02F0195089
:10123400D9261A50DA22300EDE6E040EDD6E19C085
:10124400D9FF1AC0DAFF040EDF6E19C0D9FF1AC025
:10125400DAFF000EDB8E049E1F50D8A41200BDECF2
:101264000BF012006D980CBE39D004AE0CD0020EF7
:10127400276E0001A251D8B483EC0DF0000E226E4B
:10128400000E216E120020EE01F01950D9261A50DA
:10129400DA22080EDF6E20EE02F01950D9261A5019
:1012A400DA22300EDE6E040EDD6E19C0D9FF1AC0CC
:1012B400DAFF0C0EDF6E19C0D9FF1AC0DAFF000E78
:1012C400DB8E0FC0D9FF10C0DAFF040EDF6E0FC033
:1012D400D9FF10C0DAFF000EDB8E1200040130AF1C
:1012E40010D0010E276E1E50D8B483EC0DF0000E02
:1012F400226E000E216E1F50D8A41200BDEC0BF01C
:101304001200020E276E20EE01F01950D9261A5051
:10131400DA22080EDF6E20EE02F01950D9261A5098
:10132400DA22300EDE6E040EDD6E19C0D9FF1AC04B
:10133400DAFF040EDF6E19C0D9FF1AC0DAFF000EFF
:10134400DB8E000E226E000E216E1F50D8A41200F8
:10135400BDEC0BF012000C8E710E2C6E0F0E2D6E68
:10136400000E2F6E000E2E6E000E316E020E306EC9
:10137400AAEC10F0000E2C6E040E2D6E000E2F6ED3
:10138400000E2E6E000E316E300E306EAAEC10F090
:101394006D8C000E406E020E406401D016D0405099
:1013A400010D8C0EF324D96E000EF420DA6E000EBB
:1013B400DF6E4050010D8F0EF324D96E000EF42021
:1013C400DA6E000EDF6E402AE6D7B50E2C6E000EE4
:1013D4002D6E000E2F6E000E2E6E000E316E020E5C
:1013E400306EAAEC10F06D9C080E0F6E040E106E99
:1013F400000E176E040E186E17C019F018C01AF0FC
:1014040032C42AF02A50D8A403D0100E206E120041
:10141400000E396E010E386E2A0E3A6E000E3B6EC7
:10142400000E3D6E010E3C6E4CEC0FF0200E206E53
:10143400120004013039E832030B0009D8A4120069
:1014440043D00C8E080E206E12001EEC08F0120021
:10145400ADEC09F012002A0E096E000E0A6E0C8023
:10146400010E0D6E0C8E1200D6EC0CF0120052EC34
:1014740004F0120004013451010DB50EF324096E79
:10148400000EF4200A6E0C80010E0D6E0C8E1200FC
:101494000C8E04013451010DB50EF324D96E000EE7
:1014A400F420DA6E32C4DFFF1200000E396E020E31
:1014B400386E000E3A6E000E3B6E000E3D6E000E4E
:1014C4003C6E4CEC0FF0120004013151000AD8B408
:1014D400CBD7010AD8B4CBD7020AD8B4C8D7060AE6
:1014E400D8B4AFD7030AD8B4B0D7010AD8B4DDD77B
:1014F4000F0AD8B4B0D7010AD8B4AAD7030AD8B40B
:10150400B9D7010AD8B4C4D7070A12000001BB6FC7
:101514000001B7510001D8B408D00001BB51020D3D
:101524000F0EF324D96E000E07D00001BB51020D3B
:101534007E0EF324D96E000EF420DA6EDECFBCF0FA
:10154400DDCFBDF00001BC510001BD11D8A407D00E
:10155400000E0001B76F000E0001B86F1200000109
:1015640020EE02F0BC51D926BD51DA22B8C0DEFF0C
:10157400B9C0DDFF000120EE01F0BC51D926BD51F8
:10158400DA22BAC0DFFFBCC0D9FFBDC0DAFF400E0B
:10159400DF16BCC0D9FFBDC0DAFF000EDB86BCC0BD
:1015A400D9FFBDC0DAFF000EDB8E0001B751000188
:1015B400D8B408D00001BB51020D0F0EF324D96E2C
:1015C400000E07D00001BB51020D7E0EF324D96E2C
:1015D400000EF420DA6E040EDF1ABCC0B7F0BDC0F2
:1015E400B8F01200080E2C6E0E5010E1080E0D5CBF
:1015F400D8B00CD00DC02CF02950D8A402D0010EC4
:1016040004D02904D8A402D0020E296E2C500D5EF9
:10161400000E0E5A20EE01F00F50D9261050DA2297
:101624002CC0DFFF380E00019E6F040E00019F6F77
:101634000CA01CD03AD009C0F6FF0AC0F7FFF86A24
:101644009EC0D9FF9FC0DAFF070EF76403D00800DD
:10165400F55005D0F6CFE9FFF7CFEAFFEF50DF6E84
:10166400094A0A2A00019E4B9F2B2C062C50D8B401
:101674001200E1D709C0F6FF0AC0F7FFF86A9EC05E
:10168400D9FF9FC0DAFF070EF76403D00800F550B6
:1016940005D0F6CFE9FFF7CFEAFFEF50DF6E094A36
:1016A4000A2A00019E4B9F2B2C062C50D8B4120002
:1016B400E1D7000EC26E0F0EC16E080E6F6EA09AB7
:1016C4000001C469000E956EC4C083FF010E0001C1
:1016D400C56F92920001C5510001D8B403D089505E
:1016E400020902D08950FD0B806ED3EC10F0640E19
:1016F400F9EC10F0010E0001C66F92900001C65182
:101704000001D8B403D08950010902D08950FE0BDE
:10171400806E000E0001C76F000E956EC7C083FF78
:10172400030E0001BA6FE80EB96F2AEC10F0810EB7
:101734000001B76F0F0E0001B86F930E0001B96F6F
:101744000F0E0001BA6FFF0E0001BB6F000E000107
:10175400BC6FA8EC0FF00001A16F0A0EF9EC10F0B9
:10176400A1C0C8F0000E956EC8C083FF610EA4EC42
:101774000EF0DDD7FFD72150D8A41200010E216E40
:101784002250D8A41200010E226E020E2718D8A4EB
:1017940015D020EE01F00F50D9261050DA22000E99
:1017A400DF6E0FC0D9FF10C0DAFF480EDF6E0FC026
:1017B400D9FF10C0DAFF000EDB8E12002704D8A474
:1017C4001200000E1B6E20EE01F01750D92618509F
:1017D400DA22080EDF6E20EE02F01750D9261850D8
:1017E400DA22300EDE6E040EDD6E17C0D9FF18C08B
:1017F400DAFF040EDF6E17C0D9FF18C0DAFF000E3F
:10180400DB8E010E1B6E20EE01F01950D9261A5002
:10181400DA22080EDF6E20EE02F01950D9261A5093
:10182400DA22300EDE6E040EDD6E19C0D9FF1AC046
:10183400DAFF800EDF6E1200306E2C50D8B407D061
:101844003050020D0F0EF324D96E000E06D0305026
:10185400020D7E0EF324D96E000EF420DA6EDECF74
:1018640031F0DDCF32F031503210D8A405D0000E63
:101874002C6E000E2D6E120020EE02F03150D9268F
:101884003250DA222DC0DEFF2EC0DDFF20EE01F043
:101894003150D9263250DA222FC0DFFF31C0D9FFB0
:1018A40032C0DAFF400EDF1631C0D9FF32C0DAFF92
:1018B400000EDB8631C0D9FF32C0DAFF000EDB8EAA
:1018C4002C50D8B407D03050020D0F0EF324D96E2B
:1018D400000E06D03050020D7E0EF324D96E000E99
:1018E400F420DA6E040EDF1A31C02CF032C02DF071
:1018F40012000FC0D9FF10C0DAFF000EDFBC010ECA
:101904002D6E040E0F1A080E2018D8A40BD0040153
:1019140032517F0B6E6E6E50D8B402D0100E01D0CF
:10192400040E206E2704D8A43AD020EE02F00F5003
:10193400D9261050DA22380EDE6E040EDD6EF4EC79
:101944000AF0020E2918D8A40DD00FC0D9FF10C078
:10195400DAFF040EDF6E0FC0D9FF10C0DAFF000EED
:10196400DB8E12002D50D8A40DD00FC0D9FF10C0AB
:10197400DAFF480EDF6E0FC0D9FF10C0DAFF000E89
:10198400DB8E12000FC0D9FF10C0DAFF080EDF6E25
:101994000FC0D9FF10C0DAFF000EDB8E120004BEA8
:1019A400049E000E276E1200000E0401386F000E14
:1019B4000401396F3AD00C8E040138811C04D8A478
:1019C40040D0040138833DD00C8E3BD00C8E0401F2
:1019D40034BF0BD0040134510F0B2C6E2C50020D6C
:1019E4007E0EF324D96E000E0AD0040134510F0B7D
:1019F4002C6E2C50020D0F0EF324D96E000EF42021
:101A0400DA6EDECF2DF0DDCF2EF02DC0D9FF2EC043
:101A1400DAFFDFAE16D02DC0D9FF2EC0DAFFDFA467
:101A240010D0010E0401386F0CD0040130511F0B8B
:101A3400000AD8B4C0D7010AD8B4C6D7030AD8B4A8
:101A4400C5D70CAE1200380E096E040E0A6E0C8057
:101A5400020E0D6E1200040130511F0BE806D8A4CB
:101A6400120004013039E832030BE806D8A412004E
:101A740004013451D8B433D004013405D8A412007D
:101A84002ED0A60E096E000E0A6E000E0E6E080E03
:101A94000D6E0C800C8E1200A60E096E000E0A6EDE
:101AA4000C8E120036C405F037C406F0AE0E016E7B
:101AB400000E026E000E076E000E086E048E1200F9
:101AC400AE0E096E000E0A6E000E0E6E070E0D6E3F
:101AD400C10E0C6E120032C4A5F00C8E120004016B
:101AE4003151000AD8B4CDD7010AD8B4D5D7210AC8
:101AF400D8B4D8D7010AD8B4E3D7030AD8A41200BB
:101B0400EAD7000E1E6E000E0001A26F020E271807
:101B1400D8A41FD020EE01F01950D9261A50DA2289
:101B2400080EDF6E20EE02F01950D9261A50DA2280
:101B3400380EDE6E040EDD6E19C0D9FF1AC0DAFF4E
:101B4400480EDF6E19C0D9FF1AC0DAFF000EDB8E13
:101B540012000D500401365D0E5004013759D8B0FF
:101B640004D036C40DF037C40EF0F4EC0AF020EEC5
:101B740002F00F50D9261050DA22380EDE6E040E11
:101B8400DD6E0FC0D9FF10C0DAFF480EDF6E0FC044
:101B9400D9FF10C0DAFF000EDB8E1200316E000E8A
:101BA400326E040E336E2C502D6E2E6AD8902D3664
:101BB4002E3631502F6E306AD8902F363036D8906A
:101BC4002F3630362D502F262E503022D8902F36D7
:101BD4003036D8902F3630362F50322630503322BC
:101BE40032C0D9FF33C0DAFFDF9E2C50D8A407D00F
:101BF4003150020D7E0EF324D96E000E06D0315002
:101C0400020D0F0EF324D96E000EF420DA6E32C0EA
:101C1400DEFF33C0DDFF32C0D9FF33C0DAFFDF9C03
:101C240020EE04F03250D9263350DA22DF8C120031
:101C34002D0E236E2BC046F0FD0E4616D8A438D0C8
:101C44002BC046F0D89046323F0E46164650040D3F
:101C5400000EF324176E040EF420186E17C019F04A
:101C640018C01AF0040E191A17C0D9FF18C0DAFFE9
:101C7400DF30E8320F0B0D0AD8A417D0300E2C6ECB
:101C8400040E2D6E20EE02F01750D9261850DA22D9
:101C9400DECF2EF0DDCF2FF0000E316E080E306E49
:101CA400ECEC0FF062EC0EF012007AEC0FF0120084
:101CB4002B50FD0B040AD8A412007BEC0CF012008C
:101CC400000E296E000E1F6E000E1E6E000E000127
:101CD400A26F000E1B6E000E276E0FC0D9FF10C03E
:101CE400DAFF7F0EDF16040E0F1A0FC0D9FF10C0E3
:101CF400DAFF7F0EDF16040E0F1A19C0D9FF1AC0BF
:101D0400DAFF7F0EDF16000E0C6E000E0E6E000E54
:101D14000D6E000E046E000E066E000E056E1BECBA
:101D24000AF0000E396E030E386E000E3A6E000E85
:101D34003B6E000E3D6E000E3C6E4CEC0FF034EC2E
:101D440009F012000001C16F000E0001C36F000E04
:101D5400C26F1F0E206412006DB2120043EC06F035
:101D64000AD0010E0001C2250001C26F000E00015D
:101D7400C3210001C36F2550D8B405D07D0E0001E6
:101D8400C35DD8A0EED77D0E0001C3190001C211B6
:101D9400D8B41200C10E0001B76F000E0001B86F75
:101DA400010E0001B96F0BEC11F043EC06F0000ECC
:101DB4000001C06F12000600E9CF4AF0EACF4BF0F1
:101DC400E1CF4CF0E2CF4DF0D9CF4EF0DACF4FF067
:101DD400F3CF50F0F4CF51F0F6CF52F0F7CF53F0E9
:101DE400F8CF54F0F5CF55F087EC07F055C0F5FF68
:101DF40054C0F8FF53C0F7FF52C0F6FF51C0F4FFC0
:101E040050C0F3FF4FC0DAFF4EC0D9FF4DC0E2FF10
:101E14004CC0E1FF4BC0EAFF4AC0E9FF49C0FBFFE9
:101E240048C0FAFF56921100000E0001AE6F4B0E2F
:101E3400AF6F000EB06F000EB16F000E0001B26FF5
:101E4400000E0001B36F080E0001B46F000E246E83
:101E54001A0E346E010E0CEC10F01E0E346E020ECF
:101E64000CEC10F0000E2C6E400E2D6E050E2E6E36
:101E7400400E2F6E020E1EEC0CF02CC015F02DC07F
:101E840016F0000E0001986F000E0001996F000E0D
:101E9400256E120006D016EC0FF012002DEC0DF09A
:101EA400120038C03EF039C03FF03F50000AD8B4A9
:101EB40004D07F0AD8A4120018D03E50010AD8B426
:101EC400EAD7030AD8B41200010AD8B4E7D7060A3D
:101ED400D8B41200770AD8B41200010AD8B4120098
:101EE400070AD8B41200010A12003E50FF0A120079
:101EF400020E2718D8A403D0AEEC08F01200000E8E
:101F0400276E1B50D8A41FD020EE01F01950D926FB
:101F14001A50DA22080EDF6E20EE02F01950D9268C
:101F24001A50DA22300EDE6E040EDD6E19C0D9FFAF
:101F34001AC0DAFF0C0EDF6E19C0D9FF1AC0DAFF1F
:101F4400000EDB8E1200000E1B6E1200B9C0D9FF0A
:101F5400BAC0DAFFDF500001BB11B9C0D9FFBAC063
:101F6400DAFFDF6EBCC0BDF0B7C0D9FFB8C0DAFF7E
:101F7400DF500001BB150001BE6F0001BD2B03D073
:101F84000001D890BE330001BD2FFAD70001BE5125
:101F9400120070A01DD017C0D9FF18C0DAFF800E40
:101FA400DE18D8A414D00FC0D9FF10C0DAFF840EF5
:101FB400DE18D8A40CD017C0D9FF18C0DAFF0C0E55
:101FC400DF6E17C0D9FF18C0DAFF000EDB8E7090E9
:101FD400689A12002EC034F02FC035F02CC032F0B5
:101FE4002DC033F00ED034C0D9FF35C0DAFF32C073
:101FF400E1FF33C0E2FFDFCFE7FF344A352A324A3C
:10200400332A3006D8A031063028EDE13128D8B47F
:102014001200E9D7376E34A405D0000E2C6E375069
:10202400D0EC0DF034A205D0010E2C6E3750D0EC5C
:102034000DF03750010D700EF324356E0F0EF420A1
:10204400366E35C0D9FF36C0DAFF34C0DFFF120068
:102054000DD0FF0EF9EC10F0010E0001B9250001BE
:10206400B96FFF0E0001BA210001BA6F0001BA0571
:10207400D8B0EFD70001B9510001BA11D8B4120099
:102084000001B951F9EC10F01200B7C0BDF0B8C0AE
:10209400BEF009D0BDC0D9FFBEC0DAFFB9C0DFFFB2
:1020A4000001BD4BBE2B0001BB07D8A0BC0700013B
:1020B400BB29F0E10001BC29D8B41200EBD7000E13
:1020C4001D6E000E396E740E386E000E3A6E000EE0
:1020D4003B6E000E3D6E000E3C6E4CEC0FF06D92AC
:1020E400699401D0689468B4FDD7000E0001A36F11
:1020F40012002050D8A41200000E6D6E000E696EFE
:10210400160E6F6E9F0E6B6E7B0E696ED08EA28A5A
:10211400A08AF28E01D06D866DA6FDD7010E206EC9
:102124001200698468986D82010E1D6E000E000114
:10213400A36F000E396E750E386E000E3A6E000EE7
:102144003B6E000E3D6E000E3C6E4CEC0FF0120028
:102154002CC032F02DC033F008D032C0D9FF33C0C8
:10216400DAFF2EC0DFFF324A332A3006D8A0310608
:102174003028F3E13128D8B41200EFD700EE60F034
:10218400570EEE6AE806FDE100EE01F02B0EEE6A52
:10219400E806FDE156905692000EF86E00015BEFE2
:1021A4000BF0000E0001C16F000EC06F92EC05F041
:1021B4002050D8B47BEC10F0200E2018D8A4FCD703
:1021C400000E0001C26F1200010E00018827000EEC
:1021D40089238A238B231D50D8A412000001A32B2A
:1021E4000001A351D8A412000001A3691200000148
:1021F400B86F08D0070E0001B76F610EE82EFED746
:10220400B72FFCD70001B8070001B829D8B41200D1
:10221400F1D7A09A2550D8A40BD0B7C095F0B8C078
:1022240096F0B9C026F0010E0001A46F010E256ED0
:04223400A08A12006A
:020000040030CA
:0E0000002CCE3F1EFF8781FF0FC00FE00F4088
:00000001FF
