:040000000BEF00F012
:100008005582FACF47F0FBCF48F0DDED10F098EFBE
:0200180012F0E4
:10080000009E084C088C08090809024300020100F8
:10081000C032090400000102020100052400100199
:100820000424020205240600010524010001070535
:10083000810308000209040100020A000000070504
:100840000202400000070582024000002E034D0016
:100850006100740072006900780020004D0075008E
:100860006C00740069006D0065006400690061003F
:1008700020004C00740064002E00120100020200EF
:100880000008BF1210F0000101020001120348002D
:10089000610072007300680061006E006100040373
:0F08A000090448454C4C4F20574F524C44000020
:1008B000000EC26E0F0EC16E080E6F6EA09A000180
:1008C000CD69000E956ECDC083FF010E0001CE6F85
:1008D00092920001CE510001D8B403D08950020990
:1008E00002D08950FD0B806E2DEC13F0640E53EC9A
:1008F00013F0010E0001CF6F92900001CF51000163
:10090000D8B403D08950010902D08950FE0B806E03
:10091000000E0001D06F000E956ED0C083FF030E55
:100920000001BA6FE80EB96F7BEC12F0A20E000165
:10093000C06F080E0001C16F000E0001C36F0C0EE6
:10094000C26F62EC10F0810E0001B76F0F0E000154
:10095000B86F930E0001B96F0F0E0001BA6FFF0E52
:100960000001BB6F000E0001BC6FF9EC11F000013B
:10097000A06FFF0EE6EC0DF00001C2510001DF6F29
:100980000001DF390F0B050AD8A4DDD7010E0001E5
:10099000D16F92940001D1510001D8B403D0895095
:1009A000040902D08950FB0B806E0001DFB158D0E2
:1009B000000E0001D26F92960001D2510001D8B40E
:1009C00003D08950080902D08950F70B806E010EC0
:1009D0000001D36F92980001D3510001D8B403D025
:1009E0008950100902D08950EF0B806EFF0EE6ECA3
:1009F0000DF00001C2510001DF6F0001DFB108D02E
:100A0000060E0001D46F000E936ED4C081FF07D094
:100A1000090E0001D56F000E936ED5C081FF830EC5
:100A20000001B76F0F0E0001B86F950E0001B96F8E
:100A30000F0E0001BA6FFF0E0001BB6F000E000128
:100A4000BC6FF9EC11F00001DF6F230EA4EC10F085
:100A50000A0E53EC13F00001DF51A4EC10F073D731
:100A6000010E0001D66F92960001D6510001D8B454
:100A700003D08950080902D08950F70B806E000E10
:100A80000001D76F92980001D7510001D8B403D06C
:100A90008950100902D08950EF0B806E050E0001BD
:100AA000D86F000E936ED8C081FFFF0EE6EC0DF0FC
:100AB0000001C2510001DF6F0001DF51030B020A88
:100AC000D8A41FD0FF0EE6EC0DF00001C2510001CA
:100AD000DF6FDFC0D9F0000E956ED9C083FF150E11
:100AE0000001DA6F000E936EDAC081FF010E53EC45
:100AF00013F0050E0001DB6F000E936EDBC081FF6B
:100B00001ED0FF0EE6EC0DF00001C2510001DF6FB8
:100B1000DFC0DCF0000E956EDCC083FF450E0001E7
:100B2000DD6F000E936EDDC081FF010E53EC13F0FC
:100B3000050E0001DE6F000E936EDEC081FF240EF5
:100B4000A4EC10F00A0E53EC13F00001DF51A4ECFA
:100B500010F0F9D6FFD704013205D8A410D0040153
:100B600030511F0B0009D8A40AD00C8E030E0401CB
:100B70003119D8A402D0010E01D0000E1C6E040160
:100B80003251D8A41200040130511F0B020AD8A41C
:100B90001200040134510F0B0009D8B412000401F3
:100BA00034510F0B3F6E030E3F601200200E1F18D2
:100BB000D8A412000C8E040134BF1BD004013451A0
:100BC0000F0B3F6E3F50020D7E0EF324D96E000EC8
:100BD000F420DA6EDECF43F0DDCF44F0040134516F
:100BE0000F0B3F6E3F50010D8F0EF324D96E000E98
:100BF0001AD0040134510F0B3F6E3F50020D0F0EFF
:100C0000F324D96E000EF420DA6EDECF43F0DDCF90
:100C100044F0040134510F0B3F6E3F50010D8C0E18
:100C2000F324D96E000EF420DA6EDF50426E42B02B
:100C300002D0439401D04384040134BF0BD004019B
:100C400034510F0B3F6E3F50020D7E0EF324D96ED0
:100C5000000E0AD0040134510F0B3F6E3F50020DBD
:100C60000F0EF324D96E000EF420DA6E43C0DEFFBF
:100C700044C0DDFF030E04013119D8A42FD043C0B6
:100C8000D9FF44C0DAFFDFAE1CD0040134BF0BD063
:100C9000040134510F0B3F6E3F50010D8F0EF324B2
:100CA000D96E000E0AD0040134510F0B3F6E3F5035
:100CB000010D8C0EF324D96E000EF420DA6E0001C3
:100CC000DF8243C0D9FF44C0DAFF000EDB8443C09B
:100CD000D9FF44C0DAFF000EDB8E1200040E431A67
:100CE00043C0D9FF44C0DAFFDFAE1BD043C0D9FFF9
:100CF00044C0DAFF7F0EDF1643C0D9FF44C0DAFFDD
:100D0000000EDB8C000E386E050E376E43C039F0D6
:100D100044C03AF0000E3C6E020E3B6E4CEC11F0FB
:100D200006D043C0D9FF44C0DAFF000EDB8C040EAE
:100D3000431A42B206D043C0D9FF44C0DAFFDFAE47
:100D400031D0040134BF0BD0040134510F0B3F6E7E
:100D50003F50010D8F0EF324D96E000E0AD004010E
:100D600034510F0B3F6E3F50010D8C0EF324D96EA2
:100D7000000EF420DA6E0001DF9243C0D9FF44C0B8
:100D8000DAFF3B0EDF16000E386E050E376E43C0DD
:100D900039F044C03AF0000E3C6E020E3B6E4CEC53
:100DA00011F006D043C0D9FF44C0DAFF3B0EDF1676
:100DB000040134510F0B3F6E3F50010D700EF324B0
:100DC000406E0F0EF420416E40C0D9FF41C0DAFFE3
:100DD000FE0EDF161200A09A000198510001991131
:100DE000D8B409D098C0D9FF99C0DAFF0001DFAEAE
:100DF00002D0A08A1200030E2418D8A402D0000E3C
:100E0000246E2450D8A402D0A08A1200020E241806
:100E1000D8A416D0010E0001B76F000E0001B86F04
:100E2000000E0001B96F000E0001BA6F020EFAEC5D
:100E30000BF0B7C098F0B8C099F0030E246E81D0C3
:100E40002404D8A47ED0400E256404D0400E0001B6
:100E5000BF6F02D025C0BFF00001BF51000825249C
:100E6000256E000E0001926F050E0001936FBFC04A
:100E7000BEF00001A451D8B41ED040D095C0F6FFFA
:100E800096C0F7FFF86A92C0D9FF93C0DAFF070E49
:100E9000F76403D00800F55005D0F6CFE9FFF7CF8F
:100EA000EAFFEF50DF6E0001924B932B0001954B50
:100EB000962B0001BE070001BE510001D8B423D01B
:100EC000DDD795C0F6FF96C0F7FFF86A92C0D9FF4C
:100ED00093C0DAFF070EF76403D00800F55005D081
:100EE000F6CFE9FFF7CFEAFFEF50DF6E0001924B3C
:100EF000932B0001954B962B0001BE070001BE51BC
:100F00000001D8A4DED72550D8A409D0400E000196
:100F1000BF19D8A402D0020E01D0030E246E010E18
:100F20000001B76F000E0001B86F050E0001B96F28
:100F3000BFC0BAF0020EFAEC0BF0B7C098F0B8C020
:100F400099F0A08A1200A09A000E6A6E000E686ED8
:100F5000000E706E710E0001B76F0F0E0001B86FBA
:100F6000000E0001BA6F000EB96F000E0001BC6FD9
:100F7000020EBB6FB4EC12F0160E6F6E9F0E6B6E0E
:100F80007B0E696E000E0001BF6F0B0E0001BF6586
:100F900001D010D00001BF51040D000EF324D96E12
:100FA000040EF420DA6EDE6ADE6ADE6ADD6A0001B3
:100FB000BF2BEBD76D8C000E6E6E6D986D9C689696
:100FC000000E0C6E000E046E000E066E000E056E16
:100FD00068B6F5D7010E206E010E216E000E0001DD
:100FE000A16F000E0001A26F000E1D6E000E000129
:100FF000BF6F020E0001BF6501D033D00001BF51A9
:10100000020D0F0EF324D96E000EF420DA6E000EDE
:10101000DE6E000EDD6E0001BF51020D7E0EF32468
:10102000D96E000EF420DA6E000EDE6E000EDD6E5C
:101030000001BF51010D8C0EF324D96E000EF42077
:10104000DA6E000EDF6E0001BF51010D8F0EF3242A
:10105000D96E000EF420DA6E000EDF6E0001BF2B99
:10106000C8D7080E0F6E040E106E160E706E040EAA
:101070000401036F300E026F080E0401016F040EAD
:101080000401006F0401008F000E296E000E0001A4
:10109000886F000E896F000E8A6F000E8B6F000E36
:1010A0000001A36F000E1F6E1200A09A000E6A6E60
:1010B000000E686E000E706E710E2B6E0F0E2C6E91
:1010C000000E2E6E000E2D6E000E306E020E2F6E74
:1010D00017EC13F0160E6F6E9F0E6B6E7B0E696E23
:1010E000000E336E0B0E336401D00ED03350040D5E
:1010F000000EF324D96E040EF420DA6EDE6ADE6A86
:10110000DE6ADD6A332AEED76D8C000E6E6E6D9846
:101110006D9C6896000E0C6E000E046E000E066E3E
:10112000000E056E68B6F5D7010E206E010E216E19
:10113000000E0001A16F000E0001A26F000E1D6ED7
:10114000000E336E020E336401D02ED03350020DE8
:101150000F0EF324D96E000EF420DA6E000EDE6E50
:10116000000EDD6E3350020D7E0EF324D96E000E9C
:10117000F420DA6E000EDE6E000EDD6E3350010DCF
:101180008C0EF324D96E000EF420DA6E000EDF6EA2
:101190003350010D8F0EF324D96E000EF420DA6E59
:1011A000000EDF6E332ACED7080E0F6E040E106EBF
:1011B000160E706E040E0401036F300E026F080EDF
:1011C0000401016F040E0401006F0401008F000E82
:1011D000296E000E0001886F000E896F000E8A6F65
:1011E000000E8B6F000E0001A36F000E1F6E120029
:1011F0001F04D8B46DBA06D0000E686E6980698885
:10120000020E1F6E68B469A403D06894CEEC12F08D
:101210006DA202D0A19A120068B069A006D055EC68
:1012200008F0A08A040E1F6E689068B869A802D002
:1012300000EC13F068AC1AD069AC0ED0000E386E1A
:10124000730E376E000E396E000E3A6E000E3C6E55
:10125000010E3B6E4CEC11F0689C40EC13F02250F8
:10126000D8A422062250D8B4CDEC0CF068BA69AAF2
:1012700002D01CEC12F068B269A20FD07F0E386E5B
:101280003768000E396E000E3A6E000E3C6E010E8D
:101290003B6E4CEC11F0000E6A6E040E1F6002D023
:1012A000A19A120069A639D0000E466E030E46645C
:1012B00001D033D068A631D06CCF2AF02A30E83282
:1012C000E8320F0B276E68962AB407D02750010D1D
:1012D0008F0EF324D96E000E06D02750010D8C0E10
:1012E000F324D96E000EF420DA6E0001DF7027506F
:1012F000D8A403D0D7EC0FF00ED0000E386E720ECB
:10130000376E2A0E396E000E3A6E000E3C6E000EDD
:101310003B6E4CEC11F0462AC9D7A19A1200800E00
:1013200004013019D8A41200C00E0C6E7CD07A0EC5
:10133000096E080E0A6E000E0E6E120E0D6E120071
:1013400004013251D8A43ED004013251020D070EDF
:10135000F324F66E080EF420F76E0900F5CF09F0BD
:101360000A00F5CF0AF0020E09242B6E000E0A20A7
:101370002C6E2BC0F6FF2CC0F7FFF86A070EF7643F
:1013800003D00800F55005D0F6CFE9FFF7CFEAFF0C
:10139000EF500D6E030E09242B6E000E0A202C6EEA
:1013A0002BC0F6FF2CC0F7FFF86A070EF76403D0D6
:1013B0000800F55005D0F6CFE9FFF7CFEAFFEF5070
:1013C0000E6E1200000E0C6E1200030E040132614C
:1013D00024D004013251020D010EF324F66E080EE2
:1013E000F420F76E0900F5CF09F00A00F5CF0AF0F6
:1013F00009C0F6FF0AC0F7FFF86A070EF76403D0CA
:101400000800F55005D0F6CFE9FFF7CFEAFFEF501F
:101410002B6E2B500D6E0E6A1200000E0C6E120019
:10142000000E0C6E120004013351010AD8B47FD7AC
:10143000030AD8B485D7010AD8B4C7D7F1D720EEAC
:1014400001F01750D9261850DA22DF502C6E2C509C
:10145000055C000E0658D8A005C02CF02C50055E87
:10146000000E065A000E2B6E11D02B50010D380EB7
:10147000F324D96E040EF420DA6E01C0E1FF02C03D
:10148000E2FFDFCFE7FF014A022A2B2A2C502B5C18
:10149000D8A0EBD705500610D8B432D020EE01F01A
:1014A0001950D9261A50DA22080EDF6E20EE02F00B
:1014B0001950D9261A50DA22380EDE6E040EDD6E6F
:1014C00017C0D9FF18C0DAFFDFBC0DD019C0D9FF93
:1014D0001AC0DAFF480EDF6E19C0D9FF1AC0DAFF52
:1014E000000EDB8E120019C0D9FF1AC0DAFF080EF9
:1014F000DF6E19C0D9FF1AC0DAFF000EDB8E1200B2
:1015000020EE01F01950D9261A50DA22080EDF6EAB
:1015100020EE02F01950D9261A50DA22300EDE6E73
:10152000040EDD6E19C0D9FF1AC0DAFF040EDF6E9B
:1015300019C0D9FF1AC0DAFF000EDB8E049E1E50C0
:10154000D8A41200CDEC0CF012006D980CBE39D06E
:1015500004AE0CD0020E266E0001A251D8B43FECAE
:101560000FF0000E216E000E206E120020EE01F032
:101570001950D9261A50DA22080EDF6E20EE02F03A
:101580001950D9261A50DA22300EDE6E040EDD6EA6
:1015900019C0D9FF1AC0DAFF0C0EDF6E19C0D9FFCF
:1015A0001AC0DAFF000EDB8E0FC0D9FF10C0DAFFC1
:1015B000040EDF6E0FC0D9FF10C0DAFF000EDB8E05
:1015C0001200040130AF11D0010E266E0001A151AE
:1015D000D8B43FEC0FF0000E216E000E206E1E50AE
:1015E000D8A41200CDEC0CF01200020E266E20EEF4
:1015F00001F01950D9261A50DA22080EDF6E20EEBB
:1016000002F01950D9261A50DA22300EDE6E040E7E
:10161000DD6E19C0D9FF1AC0DAFF040EDF6E19C0E3
:10162000D9FF1AC0DAFF000EDB8E000E216E000E0D
:10163000206E1E50D8A41200CDEC0CF012000C8EBF
:10164000710E2B6E0F0E2C6E000E2E6E000E2D6E78
:10165000000E306E020E2F6E17EC13F0000E2B6E84
:10166000040E2C6E000E2E6E000E2D6E000E306ECF
:10167000300E2F6E17EC13F06D8C000E3F6E020EC5
:101680003F6401D016D03F50010D8C0EF324D96E6B
:10169000000EF420DA6E000EDF6E3F50010D8F0E4B
:1016A000F324D96E000EF420DA6E000EDF6E3F2AAE
:1016B000E6D7B50E2B6E000E2C6E000E2E6E000EB1
:1016C0002D6E000E306E020E2F6E17EC13F06D9C17
:1016D000080E0F6E040E106E000E176E040E186EBC
:1016E00017C019F018C01AF032C429F02950D8A434
:1016F00003D0100E1F6E1200000E386E010E376EF2
:10170000290E396E000E3A6E000E3C6E010E3B6ED5
:101710004CEC11F0200E1F6E120004013039E8323B
:10172000030B0009D8A4120043D00C8E080E1F6EC4
:1017300012008FEC09F012001FEC0BF01200290EC2
:10174000096E000E0A6E0C80010E0D6E0C8E1200DA
:1017500040EC0EF01200ABEC05F012000401345125
:10176000010DB50EF324096E000EF4200A6E0C80F4
:10177000010E0D6E0C8E12000C8E04013451010D01
:10178000B50EF324D96E000EF420DA6E32C4DFFFFA
:101790001200000E386E020E376E000E396E000E0B
:1017A0003A6E000E3C6E000E3B6E4CEC11F01200D7
:1017B00004013151000AD8B4CBD7010AD8B4CBD731
:1017C000020AD8B4C8D7060AD8B4AFD7030AD8B427
:1017D000B0D7010AD8B4DDD70F0AD8B4B0D7010A00
:1017E000D8B4AAD7030AD8B4B9D7010AD8B4C4D791
:1017F000070A12000001BB6F0001B7510001D8B405
:1018000008D00001BB51020D0F0EF324D96E000E5B
:1018100007D00001BB51020D7E0EF324D96E000EDD
:10182000F420DA6EDECFBCF0DDCFBDF00001BC519C
:101830000001BD11D8A407D0000E0001B76F000E43
:101840000001B86F1200000120EE02F0BC51D92651
:10185000BD51DA22B8C0DEFFB9C0DDFF000120EEC5
:1018600001F0BC51D926BD51DA22BAC0DFFFBCC09D
:10187000D9FFBDC0DAFF400EDF16BCC0D9FFBDC026
:10188000DAFF000EDB86BCC0D9FFBDC0DAFF000E58
:10189000DB8E0001B7510001D8B408D00001BB5164
:1018A000020D0F0EF324D96E000E07D00001BB51BC
:1018B000020D7E0EF324D96E000EF420DA6E040EB3
:1018C000DF1ABCC0B7F0BDC0B8F01200080E2B6E16
:1018D0000E5010E1080E0D5CD8B00CD00DC02BF0EE
:1018E0002850D8A402D0010E04D02804D8A402D0D5
:1018F000020E286E2B500D5E000E0E5A20EE01F0E7
:101900000F50D9261050DA222BC0DFFF380E00010D
:101910009E6F040E00019F6F0CA01CD03AD009C02E
:10192000F6FF0AC0F7FFF86A9EC0D9FF9FC0DAFF32
:10193000070EF76403D00800F55005D0F6CFE9FF95
:10194000F7CFEAFFEF50DF6E094A0A2A00019E4BEB
:101950009F2B2B062B50D8B41200E1D709C0F6FFFD
:101960000AC0F7FFF86A9EC0D9FF9FC0DAFF070ED2
:10197000F76403D00800F55005D0F6CFE9FFF7CFA4
:10198000EAFFEF50DF6E094A0A2A00019E4B9F2BA7
:101990002B062B50D8B41200E1D72050D8A4120047
:1019A000010E206E2150D8A41200010E216E020EED
:1019B0002618D8A415D020EE01F00F50D9261050CB
:1019C000DA22000EDF6E0FC0D9FF10C0DAFF480E1A
:1019D000DF6E0FC0D9FF10C0DAFF000EDB8E1200E1
:1019E0002604D8A41200000E1B6E20EE01F0175042
:1019F000D9261850DA22080EDF6E20EE02F01750BA
:101A0000D9261850DA22300EDE6E040EDD6E17C0B5
:101A1000D9FF18C0DAFF040EDF6E17C0D9FF18C057
:101A2000DAFF000EDB8E010E1B6E20EE01F0195066
:101A3000D9261A50DA22080EDF6E20EE02F0195075
:101A4000D9261A50DA22300EDE6E040EDD6E19C071
:101A5000D9FF1AC0DAFF800EDF6E12002F6E2B50F6
:101A6000D8B407D02F50020D0F0EF324D96E000EFC
:101A700006D02F50020D7E0EF324D96E000EF420F6
:101A8000DA6EDECF30F0DDCF31F030503110D8A437
:101A900005D0000E2B6E000E2C6E120020EE02F010
:101AA0003050D9263150DA222CC0DEFF2DC0DDFFA8
:101AB00020EE01F03050D9263150DA222EC0DFFF5F
:101AC00030C0D9FF31C0DAFF400EDF1630C0D9FF79
:101AD00031C0DAFF000EDB8630C0D9FF31C0DAFF3B
:101AE000000EDB8E2B50D8B407D02F50020D0F0EF6
:101AF000F324D96E000E06D02F50020D7E0EF32473
:101B0000D96E000EF420DA6E040EDF1A30C02BF00E
:101B100031C02CF012000FC0D9FF10C0DAFF000E48
:101B2000DFBC010E2C6E040E0F1A080E1F18D8A46D
:101B30000BD0040132517F0B6E6E6E50D8B402D0C0
:101B4000100E01D0040E1F6E2604D8A43AD020EE49
:101B500002F00F50D9261050DA22380EDE6E040E35
:101B6000DD6E66EC0CF0020E2818D8A40DD00FC064
:101B7000D9FF10C0DAFF040EDF6E0FC0D9FF10C00E
:101B8000DAFF000EDB8E12002C50D8A40DD00FC04F
:101B9000D9FF10C0DAFF480EDF6E0FC0D9FF10C0AA
:101BA000DAFF000EDB8E12000FC0D9FF10C0DAFF83
:101BB000080EDF6E0FC0D9FF10C0DAFF000EDB8EFB
:101BC000120004BE049E000E266E12000001C76FB4
:101BD000000E0001C56F000E0001C96FC869000E3C
:101BE0000001C66F000E0001CB6F000ECA6F00012E
:101BF000C729D8A435D0010E0001C56F31D0CC0E55
:101C00000001BE6F000E0001BF6F010E0001C06F2A
:101C1000EDEC0EF00001C46F0001C4510001CA6F69
:101C2000CB6B0001C5510001D8A416D00001CA51E8
:101C30000001CB11D8A410D00001C62B0A0ED5ECA0
:101C400011F0640E0001C619D8A40AD0000E0001DC
:101C5000C66F0001C70704D0CCC0C8F00001C96B33
:101C60000001CA510001CB11D8A405D00001C75111
:101C70000001D8A4C4D7C8C0C2F0C9C0C3F01200C4
:101C8000000E0401386F000E0401396F3AD00C8E3B
:101C9000040138811C04D8A440D0040138833DD00D
:101CA0000C8E3BD00C8E040134BF0BD00401345198
:101CB0000F0B2B6E2B50020D7E0EF324D96E000EEF
:101CC0000AD0040134510F0B2B6E2B50020D0F0E56
:101CD000F324D96E000EF420DA6EDECF2CF0DDCFC7
:101CE0002DF02CC0D9FF2DC0DAFFDFAE16D02CC0EE
:101CF000D9FF2DC0DAFFDFA410D0010E0401386F28
:101D00000CD0040130511F0B000AD8B4C0D7010A0F
:101D1000D8B4C6D7030AD8B4C5D70CAE1200380E53
:101D2000096E040E0A6E0C80020E0D6E1200040184
:101D300030511F0BE806D8A4120004013039E832F4
:101D4000030BE806D8A4120004013451D8B433D0F0
:101D500004013405D8A412002ED0A60E096E000E80
:101D60000A6E000E0E6E080E0D6E0C800C8E1200A8
:101D7000A60E096E000E0A6E0C8E120036C405F017
:101D800037C406F0AE0E016E000E026E000E076E36
:101D9000000E086E048E1200AE0E096E000E0A6E62
:101DA000000E0E6E070E0D6EC10E0C6E120032C4C8
:101DB000A5F00C8E120004013151000AD8B4CDD721
:101DC000010AD8B4D5D7210AD8B4D8D7010AD8B4D3
:101DD000E3D7030AD8A41200EAD7000E236E1550E9
:101DE0001610D8B406D015C0D9FF16C0DAFFDFBE72
:101DF00044D020EE01F01550D9261650DA22000109
:101E0000C051DE5CD8B009D020EE01F01550D926C3
:101E10001650DA22DF500001C06F000E236E15D07D
:101E20002350010D400EF324D96E050EF420DA6E16
:101E30002350010DF3500001BE25E16EF450000166
:101E4000BF21E26EDFCFE7FF232A0001C051235CF0
:101E5000D8A0E6D7000E0001B76F400E0001B86FA2
:101E6000050E0001B96F400E0001BA6F020EFAECC8
:101E70000BF0B7C015F0B8C016F023501200000EDA
:101E80000001A16F000E0001A26F020E2618D8A457
:101E90001FD020EE01F01950D9261A50DA22080E70
:101EA000DF6E20EE02F01950D9261A50DA22380ED1
:101EB000DE6E040EDD6E19C0D9FF1AC0DAFF480EBF
:101EC000DF6E19C0D9FF1AC0DAFF000EDB8E1200D8
:101ED0000D500401365D0E5004013759D8B004D0BE
:101EE00036C40DF037C40EF066EC0CF020EE02F0B4
:101EF0000F50D9261050DA22380EDE6E040EDD6E39
:101F00000FC0D9FF10C0DAFF480EDF6E0FC0D9FF37
:101F100010C0DAFF000EDB8E1200306E000E316E44
:101F2000040E326E2B502C6E2D6AD8902C362D3626
:101F300030502E6E2F6AD8902E362F36D8902E36EF
:101F40002F362C502E262D502F22D8902E362F365D
:101F5000D8902E362F362E5031262F50322231C0B7
:101F6000D9FF32C0DAFFDF9E2B50D8A407D0305003
:101F7000020D7E0EF324D96E000E06D03050020DF5
:101F80000F0EF324D96E000EF420DA6E31C0DEFF9E
:101F900032C0DDFF31C0D9FF32C0DAFFDF9C20EE56
:101FA00004F03150D9263250DA22DF8C12002D0E87
:101FB000226E2AC045F0FD0E4516D8A438D02AC09E
:101FC00045F0D89045323F0E45164550040D000EA1
:101FD000F324176E040EF420186E17C019F018C001
:101FE0001AF0040E191A17C0D9FF18C0DAFFDF3033
:101FF000E8320F0B0D0AD8A417D0300E2B6E040E4A
:102000002C6E20EE02F01750D9261850DA22DECFBF
:102010002DF0DDCF2EF0000E306E080E2F6E3DEC51
:1020200012F01FEC10F012007AEC11F012002A509E
:10203000FD0B040AD8A412008BEC0DF01200000E68
:10204000286E000E1E6E000E0001A16F000E000132
:10205000A26F000E1B6E000E266E0FC0D9FF10C0BF
:10206000DAFF7F0EDF16040E0F1A0FC0D9FF10C063
:10207000DAFF7F0EDF16040E0F1A19C0D9FF1AC03F
:10208000DAFF7F0EDF16000E0C6E000E0E6E000ED5
:102090000D6E000E046E000E066E000E056E8DECC9
:1020A0000BF0000E386E030E376E000E396E000E08
:1020B0003A6E000E3C6E000E3B6E4CEC11F0A5EC3F
:1020C0000AF01200000E0001C76F000EC66FC0C0FC
:1020D000B7F0C1C0B8F0C2C0B9F0C3C0BAF0A8EC44
:1020E00011F00001B7510001C56F1F0E1F641200EF
:1020F0006DB21200EBEC06F00AD0010E0001C6250D
:102100000001C66F000E0001C7210001C76F2450F7
:10211000D8B405D07D0E0001C75DD8A0EED77D0EE6
:102120000001C7190001C611D8B41200C0C0B7F031
:10213000C1C0B8F0C5C0B9F065EC13F0EBEC06F027
:10214000000E0001C46F12000001C16F000E0001FB
:10215000C36F000EC26F1F0E1F6412006DB212001B
:10216000EBEC06F00AD0010E0001C2250001C26F9F
:10217000000E0001C3210001C36F2450D8B405D064
:102180007D0E0001C35DD8A0EED77D0E0001C319FE
:102190000001C211D8B41200C10E0001B76F000EC9
:1021A0000001B86F010E0001B96F65EC13F0EBECA4
:1021B00006F0000E0001C06F12000600E9CF49F0E2
:1021C000EACF4AF0E1CF4BF0E2CF4CF0D9CF4DF05F
:1021D000DACF4EF0F3CF4FF0F4CF50F0F6CF51F00E
:1021E000F7CF52F0F8CF53F0F5CF54F0F8EC08F0F9
:1021F00054C0F5FF53C0F8FF52C0F7FF51C0F6FFBF
:1022000050C0F4FF4FC0F3FF4EC0DAFF4DC0D9FFFE
:102210004CC0E2FF4BC0E1FF4AC0EAFF49C0E9FF02
:1022200048C0FBFF47C0FAFF55921100000E0001A5
:10223000AE6F4B0EAF6F000EB06F000EB16F000EA1
:102240000001B26F000E0001B36F080E0001B46F01
:10225000000E236E1A0E336E010E5DEC12F01E0E90
:10226000336E020E5DEC12F0000E2B6E400E2C6EE3
:10227000050E2D6E400E2E6E020E2EEC0DF02BC0B4
:1022800015F02CC016F0000E0001986F000E000132
:10229000996F000E246E120006D016EC11F0120099
:1022A00097EC0EF0120037C03DF038C03EF03E50C3
:1022B000000AD8B404D07F0AD8A4120018D03D5028
:1022C000010AD8B4EAD7030AD8B41200010AD8B474
:1022D000E7D7060AD8B41200770AD8B41200010A68
:1022E000D8B41200070AD8B41200010A12003D50F7
:1022F000FF0A1200020E2618D8A403D01FEC0AF021
:102300001200000E266E1B50D8A41FD020EE01F044
:102310001950D9261A50DA22080EDF6E20EE02F08C
:102320001950D9261A50DA22300EDE6E040EDD6EF8
:1023300019C0D9FF1AC0DAFF0C0EDF6E19C0D9FF21
:102340001AC0DAFF000EDB8E1200000E1B6E1200A8
:10235000000E0001BE6F000EBD6F18D00001BD5110
:102360000001B7250001BB6F0001BE510001B8217B
:102370000001BC6FBBC0F6FFBCC0F7FF0800F55002
:102380000009D8B40DD00001BD4BBE2B0001B951DE
:102390000001BD5D0001BA510001BE59D8A0DED7D1
:1023A000BDC0B7F0BEC0B8F012000001B76F07D0D3
:1023B000A30EE82EFED700D0640E0001B75F640EB6
:1023C0000001B761F5D707D0100EE82EFED700F058
:1023D0000A0E0001B75F0A0E0001B761F5D702D0FF
:1023E00000D000D00001B7070001B729D8B412000F
:1023F000F7D7B9C0D9FFBAC0DAFFDF500001BB116F
:10240000B9C0D9FFBAC0DAFFDF6EBCC0BDF0B7C03B
:10241000D9FFB8C0DAFFDF500001BB150001BE6F65
:102420000001BD2B03D00001D890BE330001BD2FA9
:10243000FAD70001BE51120070A01DD017C0D9FFFD
:1024400018C0DAFF800EDE18D8A414D00FC0D9FF50
:1024500010C0DAFF840EDE18D8A40CD017C0D9FF44
:1024600018C0DAFF0C0EDF6E17C0D9FF18C0DAFFF4
:10247000000EDB8E7090689A12002DC033F02EC0D3
:1024800034F02BC031F02CC032F00ED033C0D9FF65
:1024900034C0DAFF31C0E1FF32C0E2FFDFCFE7FF37
:1024A000334A342A314A322A2F06D8A030062F2840
:1024B000EDE13028D8B41200E9D7366E33A405D048
:1024C000000E2B6E36508DEC0FF033A205D0010EAE
:1024D0002B6E36508DEC0FF03650010D700EF3243C
:1024E000346E0F0EF420356E34C0D9FF35C0DAFFDC
:1024F00033C0DFFF12000DD0FF0E53EC13F0010EBE
:102500000001B9250001B96FFF0E0001BA210001D9
:10251000BA6F0001BA05D8B0EFD70001B951000178
:10252000BA11D8B412000001B95153EC13F01200E3
:10253000EC0EF66E260EF76E000EF86E0900F5CF63
:10254000DFF000EE60F0570EEE6AE806FDE100EE07
:1025500001F02A0EEE6AE806FDE155905592000E54
:10256000F86E000158EF04F0B7C0BDF0B8C0BEF07F
:1025700009D0BDC0D9FFBEC0DAFFB9C0DFFF00017E
:10258000BD4BBE2B0001BB07D8A0BC070001BB2977
:10259000F0E10001BC29D8B41200EBD7000E1D6E8B
:1025A000000E386E740E376E000E396E000E3A6EE5
:1025B000000E3C6E000E3B6E4CEC11F06D92699477
:1025C00001D0689468B4FDD7000E0001A36F12001B
:1025D0001F50D8A41200000E6D6E000E696E160E0C
:1025E0006F6E9F0E6B6E7B0E696ED08EA28AA08A74
:1025F000F28E01D06D866DA6FDD7010E1F6E120002
:10260000698468986D82010E1D6E000E0001A36F33
:10261000000E386E750E376E000E396E000E3A6E73
:10262000000E3C6E000E3B6E4CEC11F012002BC005
:1026300031F02CC032F008D031C0D9FF32C0DAFFFF
:102640002DC0DFFF314A322A2F06D8A030062F28AE
:10265000F3E13028D8B41200EFD7000E0001C16FAB
:10266000000EC06FA3EC07F01F50D8B4E8EC12F0D6
:10267000200E1F18D8A4FCD7000E0001C26F120054
:10268000010E00018827000E89238A238B231D5009
:10269000D8A412000001A32B0001A351D8A412005A
:1026A0000001A36912000001B86F08D0070E0001F5
:1026B000B76F610EE82EFED7B72FFCD70001B80721
:1026C0000001B829D8B41200F1D7A09A2450D8A498
:1026D0000BD0B7C095F0B8C096F0B9C025F0010E88
:0D26E0000001A46F010E246EA08A1200619B
:020000040030CA
:0E0000002CCE3F1EFF8781FF0FC00FE00F4088
:00000001FF
